:020000040800F2
:100000000000022029070008C5020008C9020008F4
:10001000CD020008D1020008D5020008000000004F
:10002000000000000000000000000000D9020008ED
:10003000DD02000800000000E1020008E5020008FF
:100040007907000879070008790700087907000890
:100050007907000879070008790700087907000880
:100060007907000879070008790700087907000870
:100070007907000879070008790700087907000860
:100080007907000879070008790700087907000850
:100090007907000879070008790700087907000840
:1000A0007907000879070008790700087907000830
:1000B0007907000879070008790700087907000820
:1000C0007907000879070008790700087907000810
:1000D0007907000879070008790700087907000800
:1000E00079070008790700087907000879070008F0
:1000F00079070008790700087907000879070008E0
:1001000079070008790700087907000879070008CF
:1001100079070008790700087907000879070008BF
:1001200079070008790700087907000879070008AF
:10013000790700087907000879070008790700089F
:10014000790700087907000879070008790700088F
:10015000790700087907000879070008790700087F
:10016000790700087907000879070008790700086F
:1001700079070008790700087907000800000000E7
:08018000790700087907000867
:1001880010B5054C237833B9044B13B10448AFF3C9
:1001980000800123237010BD0C0000200000000027
:1001A800C8070008084B10B51BB108490848AFF349
:1001B80000800848036803B910BD074B002BFBD02B
:1001C800BDE81040184700BF0000000010000020E4
:1001D800C80700080C0000200000000030B589B0F6
:1001E80000240194134B1A6B42F020021A631A6B15
:1001F80002F020020192019A02941A6B42F08002E6
:100208001A631B6B03F080030293029B0A4D22467C
:100218004FF48061284600F091F94FF4806303930E
:10022800012304930594069403A9284600F0A6F830
:1002380009B030BD003802400014024008B50D4B2B
:100248001A6842F001021A60002199601A6822F0C7
:10025800847222F480321A60074A5A601A6822F4BB
:1002680080221A60D9600A464FF0FF3000F07EF90C
:1002780008BD00BF003802401030002408B500F067
:10028800E9F9FFF7DBFFFFF7A9FF0B4C01224FF459
:100298008061204600F052F94FF4FA7000F006FA37
:1002A80000224FF48061204600F048F94FF4FA70BC
:1002B80000F0FCF9E9E700BF00140240704700BFF6
:1002C800FEE700BFFEE700BFFEE700BFFEE700BF96
:1002D800704700BF704700BF704700BF08B500F007
:1002E800D3F900F08DF908BD10B582B00024009450
:1002F800214B5A6C42F480425A645A6C02F4804290
:100308000092009A01941A6C42F080521A641B6C95
:1003180003F080530193019B032000F015F9224656
:1003280021466FF00B0000F021F9224621466FF0BC
:100338000A0000F01BF9224621466FF0090000F080
:1003480015F9224621466FF0040000F00FF9224605
:1003580021466FF0030000F009F9224621466FF0AC
:10036800010000F003F9224621464FF0FF3000F06B
:10037800FDF802B010BD00BF00380240F0B583B0F0
:100388000024CDE00123A3400A6803EA0205AB423A
:1003980040F0C5804A68022A01D0122A10D1E60826
:1003A800083650F826C004F0070297000F22BA401A
:1003B8002CEA020E0A69BA404EEA020240F82620E8
:1003C800026867000326BE40F64302EA060E4A6842
:1003D80002F00302BA404EEA020202604A6802F1E1
:1003E800FF3EBEF1010F03D9112A01D0122A10D104
:1003F800826806EA020ECA68BA404EEA02028260C1
:10040800426822EA03034A68C2F30012A2401A4370
:100418004260C3681E408B68BB403343C3604B686F
:1004280013F0805F7BD000230193404B5A6C42F459
:1004380080425A645B6C03F480430193019BA608D5
:10044800B21C3B4B53F8227004F003039B000F22AD
:100458009A4027EA0207374A90421DD002F5806287
:1004680090421BD002F58062904219D002F580625A
:10047800904217D002F58062904215D002F5806252
:10048800904213D002F58062904211D002F580624A
:1004980090420FD107220EE000220CE001220AE070
:1004A800022208E0032206E0042204E0052202E01A
:1004B800062200E0082202FA03F33B4302361C4AF4
:1004C80042F826301C4B1A68EB4302EA03064F68D1
:1004D80017F4803F01D045EA0206174A16605268B1
:1004E80003EA02064F6817F4003F01D045EA020606
:1004F800114A5660926803EA02064F6817F4801F93
:1005080001D045EA02060C4A9660D26813404E684C
:1005180016F4001F01D045EA0203074AD3600134EC
:100528000F2C7FF62FAF03B0F0BD00BF003802409C
:100538000038014000000240003C01400AB18161DE
:100548007047090481617047074AD36823F4E06360
:100558001B041B0C000200F4E060184340F0BF606D
:1005680040F40030D060704700ED00E030B4164B26
:10057800DB68C3F30223C3F10704042C28BF042457
:100588001D1D062D01D9DD1E00E00025012303FAFB
:1005980004F4013C2140A940AB40013B1A400A4306
:1005A800002806DA00F00F001201D2B2074B1A54E5
:1005B80007E01201D2B200F1604000F5614080F816
:1005C800002330BC704700BF00ED00E014ED00E0F0
:1005D8000138B0F1807F0AD2064B5860F021064AF4
:1005E80082F823100020986007221A6070470120C3
:1005F800704700BF10E000E000ED00E0704700BF6A
:1006080008B5FFF7FBFF08BD10B504460E4B187878
:100618004FF47A73B3FBF0F30C4A1068B0FBF3F0B5
:10062800FFF7D6FF58B90F2C0BD8002221464FF000
:10063800FF30FFF79BFF064B1C60002010BD012018
:1006480010BD012010BD00BF0400002008000020DC
:100658000000002008B50B4B1A6842F400721A60BB
:100668001A6842F480621A601A6842F480721A604A
:100678000320FFF769FF0020FFF7C6FFFFF734FEEE
:10068800002008BD003C0240034A1368034909786A
:100698000B441360704700BF2800002004000020AE
:1006A800014B1868704700BF2800002038B5044681
:1006B800FFF7F6FF0546B4F1FF3F02D0044B1B7865
:1006C8001C44FFF7EDFF401B8442FAD838BD00BF39
:1006D800040000200F49D1F8883043F47003C1F8B2
:1006E80088300D4B1A6842F001021A6000209860A9
:1006F8001A6822F0847222F480321A60074A5A601B
:100708001A6822F480221A60D8604FF000638B6068
:10071800704700BF00ED00E00038024010300024B0
:10072800DFF834D0002103E00C4B5B584350043110
:100738000B480C4B42189A42F6D30B4A02E00023AE
:1007480042F8043B094B9A42F9D3FFF7C3FF00F084
:1007580011F8FFF793FD704700000220E807000832
:10076800000000200C0000200C0000202C000020BD
:10077800FEE7000070B50E4B0E4CE41AA4100025DD
:100788001E46A54204D056F8253098470135F8E7AB
:1007980000F016F8084C094BE41AA41000251E4670
:1007A800A54204D056F8253098470135F8E770BDC2
:1007B800E0070008E0070008E4070008E007000871
:1007C800F8B500BFF8BC08BC9E467047F8B500BF36
:0807D800F8BC08BC9E46704706
:0407E000AD0100085F
:0407E400890100087F
:0C07E80010000000010000000024F400DC
:0400000508000729BF
:00000001FF
