:020000040800F2
:100000000000022061100008390600083D060008C3
:1000100041060008450600084906000800000000E7
:100020000000000000000000000000004D06000875
:100030005106000800000000550600085906000897
:10004000B1100008B1100008B1100008B11000088C
:10005000B1100008B1100008B1100008B11000087C
:10006000B1100008B1100008B1100008B11000086C
:10007000B1100008B1100008B1100008B11000085C
:10008000B1100008B1100008B1100008B11000084C
:10009000B1100008B1100008B1100008B11000083C
:1000A000B1100008B1100008B1100008B11000082C
:1000B000B1100008B1100008B1100008B11000081C
:1000C000B1100008B1100008B1100008B11000080C
:1000D000B1100008B1100008B1100008B1100008FC
:1000E000B1100008B1100008B1100008B1100008EC
:1000F000B1100008B1100008B1100008B1100008DC
:10010000B1100008B1100008B1100008B1100008CB
:10011000B1100008B1100008B1100008B1100008BB
:10012000B1100008B1100008B1100008B1100008AB
:10013000B1100008B1100008B1100008B11000089B
:10014000B1100008B1100008B1100008B11000088B
:10015000B1100008B1100008B1100008B11000087B
:10016000B1100008B1100008B1100008B11000086B
:10017000B1100008B1100008B11000080000000024
:08018000B1100008B1100008E5
:1001880010B5054C237833B9044B13B10448AFF3C9
:1001980000800123237010BD0C0000200000000027
:1001A80000110008084B10B51BB108490848AFF307
:1001B80000800848036803B910BD074B002BFBD02B
:1001C800BDE81040184700BF0000000010000020E4
:1001D800001100080C0000200000000053B94AB9C3
:1001E800002908BF00281CBF4FF0FF314FF0FF3037
:1001F80000F07EB9ADF1080C6DE904CE00F006F808
:10020800DDF804E0DDE9022304B070472DE9F0478A
:100218008C460E460446089D002B50D18A4217464C
:100228006CD9B2FA82FEBEF1000F0BD0CEF12004D9
:1002380020FA04F401FA0EF644EA060C02FA0EF764
:1002480000FA0EF44FEA1749220CBCFBF9F01FFA2A
:1002580087F809FB10C642EA064600FB08F3B342DA
:1002680009D9F61900F1FF3280F02281B34240F239
:100278001F8102383E44F61AA2B2B6FBF9F309FB15
:10028800136642EA064403FB08F8A04509D9E419B5
:1002980003F1FF3280F00A81A04540F20781023B5A
:1002A8003C44C8EB040443EA00400021002D62D01E
:1002B80024FA0EF400232C606B60BDE8F0878B42B3
:1002C80007D9002D55D0002185E841000846BDE832
:1002D800F087B3FA83F1002940F09080B34202D34B
:1002E800824200F2F880841A66EB03060120B446C5
:1002F800002D40D085E81010BDE8F08712B901271D
:10030800B7FBF2F7B7FA87FEBEF1000F35D1F31B42
:100318004FEA17481FFA87FC0121B3FBF8F0220CBB
:1003280008FB103642EA06460CFB00F3B34207D935
:10033800F61900F1FF3202D2B34200F2CE80104625
:10034800F61AA2B2B6FBF8F308FB136642EA0644B3
:100358000CFB03FCA44507D9E41903F1FF3202D2D0
:10036800A44500F2B5801346CCEB040443EA0040F0
:100378009CE729462846BDE8F087CEF1200106FA19
:100388000EF307FA0EF720FA01F94FEA1748CE40A4
:1003980049EA0309B6FBF8FA4FEA194408FB1A665A
:1003A8001FFA87FC44EA06430AFB0CF29A4200FA59
:1003B8000EF40AD9DB190AF1FF3180F087809A42DE
:1003C80040F28480AAF1020A3B449B1A1FFA89F979
:1003D800B3FBF8F108FB113349EA034301FB0CF6C0
:1003E8009E4207D9DB1901F1FF326BD29E4269D9CF
:1003F80002393B449B1B41EA0A418EE7C1F1200EBA
:1004080022FA0EF48B40234320FA0EF706FA01F481
:100418004FEA134C26FA0EF63C43B6FBFCF9270CC0
:100428000CFB19661FFA83F847EA064609FB08F72A
:10043800B74202FA01F200FA01FA08D9F61809F1EE
:10044800FF3041D2B7423FD9A9F102091E44F61B39
:10045800A0B2B6FBFCF40CFB146640EA064704FBAA
:1004680008F8B84507D9FF1804F1FF3028D2B84575
:1004780026D9023C1F4444EA0940C8EB0707A0FB01
:1004880002894F4544464E4614D329D065B3BAEB8A
:10049800040367EB060707FA0EFECB40CF404EEA8F
:1004A800030385E888000021BDE8F0871346F8E6D5
:1004B8001046E0E6B8EB020469EB03060138E5E70D
:1004C8000446D8E7114695E78146C0E78A467CE7A7
:1004D800023B3C4448E708460AE702383E442FE717
:1004E800C245E7D33E46D1E72946BDE8F08700BFBD
:1004F800704700BF30B589B000240194134B1A6BC4
:1005080042F020021A631A6B02F020020192019A4B
:1005180002941A6B42F080021A631B6B03F080038B
:100528000293029B0A4D22464FF48061284600F050
:10053800A5FC4FF480630393012304930594069468
:1005480003A9284600F0BAFB09B030BD00380240C4
:1005580000140240FEE700BF00B595B000210191EC
:100568002B4B1A6C42F080521A641B6C03F08053B8
:100578000193019B0291274B1A6842F480421A604A
:100588001B6803F480430293029B012308934FF4F2
:100598008033099302230E934FF480020F9219229D
:1005A80010924FF4A872119212930423139308A87F
:1005B80000F09EF818B18E211748FFF7CBFF0F23E4
:1005C800039302230493002305934FF4A053069347
:1005D8004FF480530793052103A800F0B9FA18B126
:1005E8009C210D48FFF7B6FF00F062FB0B4BA3FB05
:1005F8000030800900F08CFC042000F09FFC0022F1
:1006080011464FF0FF3000F051FC15B05DF804FBC7
:10061800003802400070004018110008D34D6210E5
:1006280008B500F0C7FCFFF797FFFFF763FFFEE789
:10063800704700BFFEE700BFFEE700BFFEE700BF50
:10064800FEE700BF704700BF704700BF704700BF9C
:1006580008B500F0C9FC00F083FC08BD10B582B0F5
:1006680000240094214B5A6C42F480425A645A6C1C
:1006780002F480420092009A01941A6C42F080526F
:100688001A641B6C03F080530193019B032000F054
:10069800FBFB224621466FF00B0000F007FC2246C8
:1006A80021466FF00A0000F001FC224621466FF057
:1006B800090000F0FBFB224621466FF0040000F021
:1006C800F5FB224621466FF0030000F0EFFB2246BF
:1006D80021466FF0010000F0E9FB224621464FF069
:1006E800FF3000F0E3FB02B010BD00BF003802404D
:1006F800002800F0B58170B582B00446036813F095
:10070800010F5AD0A04B9B6803F00C03042B0AD0AE
:100718009D4B9B6803F00C03082B0DD19A4B5B682B
:1007280013F4800F08D0984B1B6813F4003F44D093
:100738006368002B41D195E16368B3F5803F05D12B
:10074800914A136843F48033136015E0B3F5A02F82
:1007580009D18D4B1A6842F480221A601A6842F453
:1007680080321A6008E0884B1A6822F480321A60D6
:100778001A6822F480221A6063687BB100F040FC9A
:10078800054605E000F03CFC401B642800F26C8143
:100798007D4B1B6813F4003FF4D00EE000F030FCF2
:1007A800054605E000F02CFC401B642800F25E8141
:1007B800754B1B6813F4003FF4D1236813F0020F44
:1007C80050D0714B9B6813F00C0F0AD06E4B9B688E
:1007D80003F00C03082B16D16B4B5B6813F4800FE6
:1007E80011D1694B1B6813F0020F03D0E368012B8A
:1007F80040F03E81644A136823F0F803216943EA14
:10080800C10313602EE0E368D3B101225F4B1A6085
:1008180000F0F6FB054605E000F0F2FB401B02285D
:1008280000F22881584B1B6813F0020FF4D0564A87
:10083800136823F0F803216943EAC103136011E048
:100848000022524B1A6000F0DBFB054605E000F081
:10085800D7FB401B022800F20F814B4B1B6813F09B
:10086800020FF4D1236813F0080F26D0636993B1FF
:100878000122474B1A6000F0C3FB054605E000F073
:10088800BFFB401B022800F2F9803F4B5B6F13F05F
:10089800020FF4D011E000223D4B1A6000F0B0FBCB
:1008A800054605E000F0ACFB401B022800F2E8809A
:1008B800354B5B6F13F0020FF4D1236813F0040F6C
:1008C8007CD0314B1B6C13F0805F0DD1002301935A
:1008D8002D4B1A6C42F080521A641B6C03F0805343
:1008E8000193019B012500E000252A4B1B6813F4A6
:1008F800807F13D1274A136843F48073136000F094
:100908007FFB064605E000F07BFB801B022800F217
:10091800B980204B1B6813F4807FF4D0A368012BA7
:1009280005D1194A136F43F00103136714E0052B2F
:1009380009D1154B1A6F42F004021A671A6F42F078
:1009480001021A6708E0104B1A6F22F001021A67B9
:100958001A6F22F004021A67A3688BB100F050FBEB
:10096800064607E000F04CFB801B41F288339842B2
:1009780000F28A80044B1B6F13F0020FF2D017E0CD
:1009880000F03EFB06460EE00038024000004742F9
:10099800800E47420070004000F032FB801B41F29D
:1009A8008833984272D8404B1B6F13F0020FF3D173
:1009B80025B13D4A136C23F080531364A369002BBF
:1009C80066D0394A926802F00C02082A62D0022BDB
:1009D80033D10022354B1A6000F012FB054604E0C3
:1009E80000F00EFB401B022856D82F4B1B6813F053
:1009F800007FF5D1E269236A1343626A43EA8213EE
:100A0800A26A5208013A43EA0243E26A43EA0263ED
:100A1800254A53600122254B1A6000F0F1FA04467A
:100A280004E000F0EDFA001B022837D81E4B1B68C3
:100A380013F0007FF5D0002033E000221B4B1A6032
:100A480000F0DEFA044604E000F0DAFA001B02289F
:100A580026D8154B1B6813F0007FF5D1002020E045
:100A68000120704701201CE003201AE0032018E051
:100A7800012016E0032014E0032012E0032010E018
:100A880003200EE003200CE003200AE0032008E026
:100A9800002006E0012004E0032002E0032000E03B
:100AA800032002B070BD00BF00380240600047421A
:100AB80038B5244B9B6803F00C03042B3FD0082B5C
:100AC80001D0214838BD1F4B5A6802F03F025B68CD
:100AD80013F4800F0AD01B4B5968C1F38811002307
:100AE8001A48A1FB0001FFF779FB1FE0154B5B6873
:100AF800C3F38813DC000025690141EAD461600171
:100B0800041B61EB0505A90141EA9461A001001BE2
:100B180061EB0501C01841F100018B0243EA9053D3
:100B28008402204619460023FFF758FB054B5B68F3
:100B3800C3F3014301335B00B0FBF3F038BD034856
:100B480038BD00BF003802400024F40040787D0121
:100B5800002800F0978070B50446514B1B6803F0DD
:100B68000F038B4208D2CBB24D4A1370136803F0BF
:100B78000F03994240F08880236813F0020F17D0C2
:100B880013F0040F04D0474A936843F4E05393608A
:100B9800236813F0080F04D0424A936843F4604373
:100BA80093604048836823F0F002A368134383608E
:100BB8000D46236813F0010F2FD06268012A05D172
:100BC800384B1B6813F4003F0ED15FE0931E012BD6
:100BD80005D8344B1B6813F0007F05D158E0314B22
:100BE8001B6813F0020F55D02E498B6823F00303BE
:100BF80013438B6000F004FA064606E000F000FAA2
:100C0800801B41F28833984246D8264B9B6803F0F4
:100C18000C036268B3EB820FF0D1214B1B6803F021
:100C28000F039D4207D2EAB21D4B1A701B6803F0EE
:100C38000F039D4232D1236813F0040F06D01949DF
:100C48008B6823F4E052E36813438B60236813F046
:100C5800080F07D0134A936823F46043216943EAD5
:100C6800C1039360FFF724FF0E4B9B68C3F3031384
:100C78000D4AD35CD8400D4B1860002000F074F981
:100C8800002070BD01207047012070BD012070BD9B
:100C9800012070BD012070BD032070BD012070BD12
:100CA800003C0240003802402411000808000020DF
:100CB800014B1868704700BF08000020F0B583B0EA
:100CC8000024CDE00123A3400A6803EA0205AB42F1
:100CD80040F0C5804A68022A01D0122A10D1E608DD
:100CE800083650F826C004F0070297000F22BA40D1
:100CF8002CEA020E0A69BA404EEA020240F826209F
:100D0800026867000326BE40F64302EA060E4A68F8
:100D180002F00302BA404EEA020202604A6802F197
:100D2800FF3EBEF1010F03D9112A01D0122A10D1BA
:100D3800826806EA020ECA68BA404EEA0202826077
:100D4800426822EA03034A68C2F30012A2401A4327
:100D58004260C3681E408B68BB403343C3604B6826
:100D680013F0805F7BD000230193404B5A6C42F410
:100D780080425A645B6C03F480430193019BA6088C
:100D8800B21C3B4B53F8227004F003039B000F2264
:100D98009A4027EA0207374A90421DD002F580623E
:100DA80090421BD002F58062904219D002F5806211
:100DB800904217D002F58062904215D002F5806209
:100DC800904213D002F58062904211D002F5806201
:100DD80090420FD107220EE000220CE001220AE027
:100DE800022208E0032206E0042204E0052202E0D1
:100DF800062200E0082202FA03F33B4302361C4AAB
:100E080042F826301C4B1A68EB4302EA03064F6887
:100E180017F4803F01D045EA0206174A1660526867
:100E280003EA02064F6817F4003F01D045EA0206BC
:100E3800114A5660926803EA02064F6817F4801F49
:100E480001D045EA02060C4A9660D26813404E6803
:100E580016F4001F01D045EA0203074AD3600134A3
:100E68000F2C7FF62FAF03B0F0BD00BF0038024053
:100E78000038014000000240003C01400AB1816195
:100E88007047090481617047074AD36823F4E06317
:100E98001B041B0C000200F4E060184340F0BF6024
:100EA80040F40030D060704700ED00E030B4164BDD
:100EB800DB68C3F30223C3F10704042C28BF04240E
:100EC8001D1D062D01D9DD1E00E00025012303FAB2
:100ED80004F4013C2140A940AB40013B1A400A43BD
:100EE800002806DA00F00F001201D2B2074B1A549C
:100EF80007E01201D2B200F1604000F5614080F8CD
:100F0800002330BC704700BF00ED00E014ED00E0A6
:100F18000138B0F1807F0AD2064B5860F021064AAA
:100F280082F823100020986007221A607047012079
:100F3800704700BF10E000E000ED00E0042805D194
:100F4800054A136843F0040313607047024A1368A4
:100F580023F004031360704710E000E0704700BFFF
:100F680008B5FFF7FBFF08BD10B504460E4B18780F
:100F78004FF47A73B3FBF0F30C4A1068B0FBF3F04C
:100F8800FFF7C6FF58B90F2C0BD8002221464FF0A7
:100F9800FF30FFF78BFF064B1C60002010BD0120BF
:100FA80010BD012010BD00BF040000200800002073
:100FB8000000002008B50B4B1A6842F400721A6052
:100FC8001A6842F480621A601A6842F480721A60E1
:100FD8000320FFF759FF0020FFF7C6FFFFF73EFB8E
:100FE800002008BD003C0240034A13680349097801
:100FF8000B441360704700BF280000200400002045
:10100800014B1868704700BF280000200F49D1F82D
:10101800883043F47003C1F888300D4B1A6842F0E9
:1010280001021A60002098601A6822F0847222F483
:1010380080321A60074A5A601A6822F480221A60BD
:10104800D8604FF000638B60704700BF00ED00E090
:101058000038024010300024DFF834D0002103E0CB
:101068000C4B5B58435004310B480C4B42189A42C6
:10107800F6D30B4A02E0002342F8043B094B9A429C
:10108800F9D3FFF7C3FF00F011F8FFF7C9FA70476B
:101098000000022044110008000000200C0000207D
:1010A8000C0000202C000020FEE7000070B50E4B5D
:1010B8000E4CE41AA41000251E46A54204D056F88A
:1010C800253098470135F8E700F016F8084C094B29
:1010D800E41AA41000251E46A54204D056F825306F
:1010E80098470135F8E770BD3C1100083C1100082D
:1010F800401100083C110008F8B500BFF8BC08BC56
:101108009E467047F8B500BFF8BC08BC9E467047BD
:101118005372632F6D61696E2E630000000000003A
:0C11280000000000010203040607080993
:08113400E0F0FF7F0100000064
:04113C00AD010008F9
:041140008901000819
:0C11440010000000010000000024F40076
:04000005080010617E
:00000001FF
